:020000040800F2
:1000000000500020B52500082125000827250008FC
:100010002D250008332500083925000800000000C0
:100020000000000000000000000000003F25000864
:100030004B25000800000000572500086325000834
:10004000FD250008FD250008FD250008FD25000808
:10005000FD250008FD250008FD250008FD250008F8
:10006000FD250008FD250008FD2500087125000874
:10007000FD250008FD250008FD250008FD250008D8
:10008000FD250008FD250008FD250008FD250008C8
:10009000FD250008FD250008FD250008FD250008B8
:1000A000FD250008FD250008FD250008FD250008A8
:1000B000FD250008FD250008FD250008FD25000898
:1000C000FD250008FD250008FD250008FD25000888
:1000D000FD250008FD250008FD250008FD25000878
:1000E0008525000895250008FD2500080000000072
:1000F0000000000000000000000000000000000000
:0C01000000000000000000005FF808F1A3
:10010C0010B5054C237833B9044B13B10448AFF345
:10011C0000800123237010BD0C00002000000000A3
:10012C003C73000808B5034B1BB103490348AFF3FC
:10013C00008008BD00000000100000203C73000887
:10014C004FF0FF0C1CEAD0521EBF1CEAD15392EAAE
:10015C000C0F93EA0C0F6FD01A4480EA010C40028A
:10016C0018BF5FEA41211ED04FF0006343EA5010E4
:10017C0043EA5111A0FB01310CF00040B1F5000F26
:10018C003EBF490041EAD3715B0040EA010062F1D5
:10019C007F02FD2A1DD8B3F1004F40EBC25008BFBF
:1001AC0020F00100704790F0000F0CF0004C08BFDD
:1001BC0049024CEA502040EA51207F3AC2BFD2F1AA
:1001CC00FF0340EAC250704740F400004FF00003B8
:1001DC00013A5DDC12F1190FDCBF00F000407047F2
:1001EC00C2F10002410021FA02F1C2F1200200FA30
:1001FC0002FC5FEA310040F1000053EA4C0308BFF7
:10020C0020EADC70704792F0000F00F0004C02BF47
:10021C00400010F4000F013AF9D040EA0C0093F0C2
:10022C00000F01F0004C02BF490011F4000F013B1C
:10023C00F9D041EA0C018FE70CEAD15392EA0C0F8A
:10024C0018BF93EA0C0F0AD030F0004C18BF31F0F5
:10025C00004CD8D180EA010000F00040704790F0CB
:10026C00000F17BF90F0004F084691F0000F91F06F
:10027C00004F14D092EA0C0F01D142020FD193EA35
:10028C000C0F03D14B0218BF084608D180EA0100BD
:10029C0000F0004040F0FE4040F40000704740F099
:1002AC00FE4040F44000704781F0004102E000BF86
:1002BC0083F0004330B54FEA41044FEA430594EA1A
:1002CC00050F08BF90EA020F1FBF54EA000C55EA55
:1002DC00020C7FEA645C7FEA655C00F0E2804FEA26
:1002EC005454D4EB5555B8BF6D420CDD2C4480EA08
:1002FC00020281EA030382EA000083EA010180EA38
:10030C00020281EA0303362D88BF30BD11F0004F85
:10031C004FEA01314FF4801C4CEA113102D04042BB
:10032C0061EB410113F0004F4FEA03334CEA1333F6
:10033C0002D0524263EB430394EA050F00F0A7800E
:10034C00A4F10104D5F1200E0DDB02FA0EFC22FA09
:10035C0005F2801841F1000103FA0EF2801843FAFD
:10036C0005F359410EE0A5F120050EF1200E012AEE
:10037C0003FA0EFC28BF4CF0020C43FA05F3C0182C
:10038C0051EBE37101F0004507D54FF0000EDCF1A5
:10039C00000C7EEB00006EEB0101B1F5801F1BD34E
:1003AC00B1F5001F0CD349085FEA30004FEA3C0C52
:1003BC0004F101044FEA445212F5800F80F09A8048
:1003CC00BCF1004F08BF5FEA500C50F1000041EB4C
:1003DC00045141EA050130BD5FEA4C0C404141EB50
:1003EC000101013C28BFB1F5801FE9D291F0000F4B
:1003FC0004BF01460020B1FA81F308BF2033A3F1FA
:10040C000B03B3F120020CDA0C3208DD02F1140CF0
:10041C00C2F10C0201FA0CF021FA02F10CE002F12B
:10042C001402D8BFC2F1200C01FA02F120FA0CFC24
:10043C00DCBF41EA0C019040E41AA2BF01EB04516D
:10044C00294330BD6FEA04041F3C1CDA0C340EDC6B
:10045C0004F11404C4F1200220FA04F001FA02F3AE
:10046C0040EA030021FA04F345EA030130BDC4F16C
:10047C000C04C4F1200220FA02F001FA04F340EA61
:10048C000300294630BD21FA04F0294630BD94F012
:10049C00000F83F4801306BF81F480110134013DF9
:1004AC004EE77FEA645C18BF7FEA655C29D094EA6A
:1004BC00050F08BF90EA020F05D054EA000C04BFE8
:1004CC001946104630BD91EA030F1EBF00210020D3
:1004DC0030BD5FEA545C05D14000494128BF41F072
:1004EC00004130BD14F580043CBF01F5801130BDD6
:1004FC0001F0004545F0FE4141F470014FF0000061
:10050C0030BD7FEA645C1ABF194610467FEA655C11
:10051C001CBF0B46024650EA013406BF52EA0335B3
:10052C0091EA030F41F4002130BD00BF90F0000FA1
:10053C0004BF0021704730B54FF4806404F13204DD
:10054C004FF000054FF0000150E700BF90F0000F96
:10055C0004BF0021704730B54FF4806404F13204BD
:10056C0010F0004548BF40424FF000013EE700BF8D
:10057C0042004FEAE2014FEA31014FEA02701FBF1D
:10058C0012F07F4393F07F4F81F06051704732F04F
:10059C007F4208BF704793F07F4F04BF41F40021A6
:1005AC00704730B54FF4607401F0004521F0004104
:1005BC001CE700BF50EA010208BF704730B54FF08E
:1005CC0000050AE050EA010208BF704730B511F08F
:1005DC00004502D5404261EB41014FF4806404F1C7
:1005EC0032045FEA915C3FF4D8AE4FF003025FEA4D
:1005FC00DC0C18BF03325FEADC0C18BF033202EBD1
:10060C00DC02C2F1200300FA03FC20FA02F001FA2A
:10061C0003FE40EA0E0021FA02F11444BDE600BFCD
:10062C0070B54FF0FF0C4CF4E06C1CEA11541DBF7C
:10063C001CEA135594EA0C0F95EA0C0F00F0DEF847
:10064C002C4481EA030621EA4C5123EA4C5350EA2C
:10065C00013518BF52EA033541F4801143F480137D
:10066C0038D0A0FB02CE4FF00005E1FB02E506F00E
:10067C000042E0FB03E54FF00006E1FB03569CF063
:10068C00000F18BF4EF0010EA4F1FF04B6F5007F69
:10069C0064F5407404D25FEA4E0E6D4146EB0606DB
:1006AC0042EAC62141EA55514FEAC52040EA5E5064
:1006BC004FEACE2EB4F1FD0C88BFBCF5E06F1ED80E
:1006CC00BEF1004F08BF5FEA500E50F1000041EB45
:1006DC00045170BD06F0004646EA010140EA0200F2
:1006EC0081EA0301B4EB5C04C2BFD4EB0C0541EA14
:1006FC00045170BD41F480114FF0000E013C00F329
:10070C00AB8014F1360FDEBF002001F0004170BD4C
:10071C00C4F10004203C35DA0C341BDC04F1140465
:10072C00C4F1200500FA05F320FA04F001FA05F2F1
:10073C0040EA020001F0004221F0004110EBD370BE
:10074C0021FA04F642EB06015EEA430E08BF20EAEA
:10075C00D37070BDC4F10C04C4F1200500FA04F38D
:10076C0020FA05F001FA04F240EA020001F000411F
:10077C0010EBD37041F100015EEA430E08BF20EA92
:10078C00D37070BDC4F1200500FA05F24EEA020EDA
:10079C0020FA04F301FA05F243EA020321FA04F009
:1007AC0001F0004121FA04F220EA020000EBD370C0
:1007BC005EEA430E08BF20EAD37070BD94F0000FC0
:1007CC000FD101F00046400041EB010111F4801FF4
:1007DC0008BF013CF7D041EA060195F0000F18BFA5
:1007EC00704703F00046520043EB030313F4801FE1
:1007FC0008BF013DF7D043EA0603704794EA0C0F9B
:10080C000CEA135518BF95EA0C0F0CD050EA4106B0
:10081C0018BF52EA4306D1D181EA030101F000412D
:10082C004FF0000070BD50EA410606BF1046194655
:10083C0052EA430619D094EA0C0F02D150EA013661
:10084C0013D195EA0C0F05D152EA03361CBF1046A2
:10085C0019460AD181EA030101F0004141F0FE4141
:10086C0041F470014FF0000070BD41F0FE4141F4C5
:10087C00780170BD70B54FF0FF0C4CF4E06C1CEAC5
:10088C0011541DBF1CEA135594EA0C0F95EA0C0F7A
:10089C0000F0A7F8A4EB050481EA030E52EA033535
:1008AC004FEA013100F088804FEA03334FF0805556
:1008BC0045EA131343EA12634FEA022245EA111583
:1008CC0045EA10654FEA00260EF000419D4208BF34
:1008DC00964244F1FD0404F5407402D25B084FEAE1
:1008EC003202B61A65EB03055B084FEA32024FF48D
:1008FC0080104FF4002CB6EB020E75EB030E22BFEA
:10090C00B61A754640EA0C005B084FEA3202B6EBA9
:10091C00020E75EB030E22BFB61A754640EA5C0058
:10092C005B084FEA3202B6EB020E75EB030E22BFE8
:10093C00B61A754640EA9C005B084FEA3202B6EBE9
:10094C00020E75EB030E22BFB61A754640EADC00A8
:10095C0055EA060E18D04FEA051545EA16754FEA0A
:10096C0006164FEAC30343EA52734FEAC2025FEA28
:10097C001C1CC0D111F4801F0BD141EA00014FF0B7
:10098C0000004FF0004CB6E711F4801F04BF014388
:10099C000020B4F1FD0C88BFBCF5E06F3FF6AFAEA4
:1009AC00B5EB030C04BFB6EB020C5FEA500C50F134
:1009BC00000041EB045170BD0EF0004E4EEA1131B7
:1009CC0014EB5C04C2BFD4EB0C0541EA045170BDBE
:1009DC0041F480114FF0000E013C90E645EA060E02
:1009EC008DE60CEA135594EA0C0F08BF95EA0C0F30
:1009FC003FF43BAF94EA0C0F0AD150EA01347FF478
:100A0C0034AF95EA0C0F7FF425AF104619462CE74E
:100A1C0095EA0C0F06D152EA03353FF4FDAE1046B1
:100A2C00194622E750EA410618BF52EA43067FF402
:100A3C00C5AE50EA41047FF40DAF52EA43057FF492
:100A4C00EBAE12E74FEA410212F5001215D211D5A6
:100A5C006FF47873B3EB625212D94FEAC12343F0AF
:100A6C00004343EA505311F0004F23FA02F018BF31
:100A7C00404270474FF00000704750EA013005D1FA
:100A8C0011F0004008BF6FF0004070474FF00000BD
:100A9C00704700BF4A0011D212F5001211D20DD5C9
:100AAC006FF47873B3EB62520ED44FEAC12343F068
:100ABC00004343EA505323FA02F070474FF0000012
:100ACC00704750EA013002D14FF0FF3070474FF0C1
:100ADC00000070474FEA4102B2F1E04324BFB3F586
:100AEC00001CDCF1FE5C0DD901F0004C4FEAC00299
:100AFC004CEA5070B2F1004F40EB830008BF20F07D
:100B0C000100704711F0804F21D113F13872BCBF36
:100B1C0001F00040704741F480114FEA5252C2F18B
:100B2C001802C2F1200C10FA0CF320FA02F018BFD4
:100B3C0040F001004FEAC1234FEAD32303FA0CFC27
:100B4C0040EA0C0023FA02F34FEA4303CCE77FEAB6
:100B5C00625307D150EA01331EBF4FF0FE4040F400
:100B6C004000704701F0004040F0FE4040F40000AF
:100B7C00704700BF80F0004002E000BF81F00041F0
:100B8C0042001FBF5FEA410392EA030F7FEA226C27
:100B9C007FEA236C6AD04FEA1262D2EB1363C1BFB7
:100BAC00D218414048404140B8BF5B42192B88BF26
:100BBC00704710F0004F40F4000020F07F4018BF49
:100BCC00404211F0004F41F4000121F07F4118BF69
:100BDC00494292EA030F3FD0A2F1010241FA03FC11
:100BEC0010EB0C00C3F1200301FA03F100F00043F9
:100BFC0002D5494260EB4000B0F5000F13D3B0F1C1
:100C0C00807F06D340084FEA310102F10102FE2A2F
:100C1C0051D2B1F1004F40EBC25008BF20F001009F
:100C2C0040EA03007047490040EB0000013A28BF3E
:100C3C00B0F5000FEDD2B0FA80FCACF1080CB2EBC1
:100C4C000C0200FA0CF0AABF00EBC250524218433F
:100C5C00BCBFD0401843704792F0000F81F40001E4
:100C6C0006BF80F400000132013BB5E74FEA4103B7
:100C7C007FEA226C18BF7FEA236C21D092EA030F23
:100C8C0004D092F0000F08BF0846704790EA010F9D
:100C9C001CBF0020704712F07F4F04D1400028BFCA
:100CAC0040F00040704712F100723CBF00F50000AC
:100CBC00704700F0004343F0FE4040F400007047E2
:100CCC007FEA226216BF08467FEA2363014642028E
:100CDC0006BF5FEA412390EA010F40F480007047A1
:100CEC004FF0000304E000BF10F0004348BF404247
:100CFC005FEA000C08BF704743F0964301464FF083
:100D0C0000001CE050EA010208BF70474FF00003DE
:100D1C000AE000BF50EA010208BF704711F000431F
:100D2C0002D5404261EB41015FEA010C02BF8446EF
:100D3C000146002043F0B64308BFA3F18053A3F54E
:100D4C000003BCFA8CF2083AA3EBC25310DB01FA95
:100D5C0002FC634400FA02FCC2F12002BCF1004F19
:100D6C0020FA02F243EB020008BF20F001007047AA
:100D7C0002F1200201FA02FCC2F1200250EA4C00FE
:100D8C0021FA02F243EB020008BF20EADC70704744
:100D9C0042000ED2B2F1FE4F0BD34FF09E03B3EBD9
:100DAC00126209D44FEA002343F0004323FA02F005
:100DBC0070474FF00000704712F1610F01D14202F1
:100DCC0002D14FF0FF3070474FF00000704700BF6A
:100DDC0080B400AF064B78225A60054B10221A7073
:100DEC00034B00229A7300BFBD4680BC704700BF06
:100DFC002800002080B586B002AF0346FB71FB795A
:100E0C003B7300BF0C4B5B6807F10C020093012392
:100E1C0046210A4802F022FF0346002BF2D1074B71
:100E2C001B686FF010025A61642001F045FC00BF92
:100E3C001037BD4680BD00BF28000020FC000020FC
:100E4C0080B500AF0120FFF7D5FF0720FFF7D2FFD9
:100E5C00034B1B781846FFF7CDFF00BF80BD00BFCA
:100E6C002800002080B584B002AF0023BB80B420E2
:100E7C0001F022FC00BF1C4B5B685B003A1D009329
:100E8C0002234621194802F0E7FF0346002BF2D15A
:100E9C003B799AB2144B9A813B799BB21B029AB262
:100EAC007B799BB213449AB20F4B9A810E4B9B8960
:100EBC001846FFF74BFB4FF033320D4BFFF7DAFCC4
:100ECC0002460B4610461946FFF7E4FD03469AB25C
:100EDC00054B9A81642001F0EFFB034B9B8918466C
:100EEC000837BD4680BD00BF28000020FC00002054
:100EFC003333F33F80B500AF4FF40061094800F085
:100F0C00ABF800224FF40061064802F032FD44F2C7
:100F1C00506000F089F84FF40061024800F0B9F815
:100F2C0000BF80BD000C014080B582B000AF002333
:100F3C00BB713AE000BF4FF40061204802F002FDA3
:100F4C000346002BF7D0282000F06EF84FF4006118
:100F5C001A4802F0F7FC0346002B0ED1BB79C3F103
:100F6C000703012202FA03F35BB2DB435AB297F98F
:100F7C00073013405BB2FB710BE0BB79C3F1070385
:100F8C00012202FA03F35AB297F9073013435BB20A
:100F9C00FB7100BF4FF40061084802F0D3FC03461C
:100FAC00002BF7D1BB790133BB71BB79072BC1D9AE
:100FBC00FB7918460837BD4680BD00BF000C0140C8
:100FCC0080B582B000AF0023FB71282000F02CF814
:100FDC004FF40061134802F0B5FC0346002B0FD10F
:100FEC005A2000F021F84FF400610E4802F0AAFCE0
:100FFC000346002B02D00123FB7101E0FF23FB71A0
:10100C00FB79012B08D100BF4FF40061054802F0B9
:10101C0099FC0346002BF7D1FB7918460837BD46DF
:10102C0080BD00BF000C014080B483B000AF03460C
:10103C00FB80084B1B6800225A6200BF054B1B68E3
:10104C005A6AFB889A42F9D300BF00BF0C37BD46E1
:10105C0080BC7047BC01002080B586B000AF7860C2
:10106C000B467B8007F1080300221A605A609A60D5
:10107C00DA607B88BB600123FB6002237B6107F194
:10108C0008031946786802F0D9FA00BF1837BD4634
:10109C0080BD80B586B000AF78600B467B8007F1D1
:1010AC00080300221A605A609A60DA607B88BB6081
:1010BC000023FB6001233B6107F1080319467868A4
:1010CC0002F0BCFA00BF1837BD4680BDB0B582B087
:1010DC0000AFFFF729FF0346FB71FFF725FF03461F
:1010EC00BB71FB791846FFF731FA04460D46BB7904
:1010FC001846FFF72BFA4FF000020B4BFFF7BAFB29
:10110C0002460B4620462946FFF7D4F802460B460A
:10111C0010461946FFF7DEFC03463B603B68184659
:10112C000837BD46B0BD00BF00002440B0B582B04A
:10113C0000AFFFF7F9FE0346FB71FFF7F5FE034620
:10114C00BB71FB791846FFF701FA04460D46BB79D3
:10115C001846FFF7FBF94FF000020B4BFFF78AFB29
:10116C0002460B4620462946FFF7A4F802460B46DA
:10117C0010461946FFF7AEFC03463B603B68184629
:10118C000837BD46B0BD00BF00002440B0B48FB0DE
:10119C0000AF786040F2B113FB62072387F8303060
:1011AC00072387F83130012387F83230FF2387F883
:1011BC003630642387F837300823BB867B681D469E
:1011CC0007F10C040FCC0FC50FCC0FC594E807002A
:1011DC0085E8070078683C37BD46B0BC704780B5E1
:1011EC0084B000AF786039600121786800F0FFF9B5
:1011FC000346BB73BB7BFB733B68002B07D1BB7BEC
:10120C0023F00703FB737B680022DA613EE03B6846
:10121C00012B0CD197F90E3023F007035BB243F08E
:10122C0001035BB2FB737B680122DA612EE03B6841
:10123C00032B0CD197F90E3023F007035BB243F06C
:10124C0003035BB2FB737B680322DA611EE03B682D
:10125C00052B0CD197F90E3023F007035BB243F04A
:10126C0005035BB2FB737B680522DA610EE03B6819
:10127C00062B0BD197F90E3023F007035BB243F02A
:10128C0006035BB2FB737B680622DA61FB7B1A46B2
:10129C000121786800F0C5F900BF1037BD4680BD4C
:1012AC0080B584B000AFF860B9603B601346FB803A
:1012BC00FB681868FB689B880022194602F059FBF2
:1012CC00FB689869FA884FF4FA63B96805F014F86A
:1012DC0000BFFB689B69184605F014FC0346012B04
:1012EC00F7D1FB6898693A8B4FF4FA63396805F0CB
:1012FC0047F900BFFB689B69184605F003FC0346E1
:10130C00012BF7D1FB681868FB689B8801221946F2
:10131C0002F02FFB00BF1037BD4680BD80B584B0F6
:10132C0000AFF860B9603B601346FB80FB6818683F
:10133C00FB689B880022194602F01BFBFB6898692E
:10134C00FA884FF4FA63B96804F0D6FF00BFFB6863
:10135C009B69184605F0D6FB0346012BF7D1FB68B9
:10136C0098693A8B4FF4FA63396804F0C5FF00BFF3
:10137C00FB689B69184605F0C5FB0346012BF7D1AA
:10138C00FB681868FB689B880122194602F0F1FA89
:10139C0000BF1037BD4680BD80B584B000AF78600B
:1013AC000B46FB702621786800F021F90346BB73CD
:1013BC00FB78002B04D0BB7B43F00803FB7303E0EA
:1013CC00BB7B23F00803FB73FB7B1A462621786852
:1013DC0000F027F90A2001F06FF900BF1037BD4665
:1013EC0080BD000080B596B000AF7860174A07F159
:1013FC00080311465022184605F08CFF7B6893F8C1
:10140C0024301A46012393401846FFF79FF87B6857
:10141C0093F82530DB0058333B44503BD3E9002391
:10142C00FFF728FA02460B4610461946FFF70AFB4F
:10143C000346102BCCBF01230023DBB2194678687E
:10144C00FFF7AAFF00BF5837BD4680BD5873000890
:10145C0080B584B000AF786039603B68DB045B1109
:10146C00FB60FB681B0CFB72FB7A1A460621786842
:10147C0000F0D7F8052001F01FF9FB681B0AFB727E
:10148C00FB7A1A460721786800F0CBF8052001F0AA
:10149C0013F9FB68FB72FB7A1A460821786800F096
:1014AC00C0F8052001F008F900BF1037BD4680BD1B
:1014BC0080B584B000AF786039603B680C2B01DDDF
:1014CC000C233B603B68062B01DC07233B601E2191
:1014DC00786800F08CF80346FB730A2001F0ECF8F6
:1014EC003B68DBB21B01DAB2FB7B03F00F03DBB210
:1014FC001344BB73BB7B1A461E21786800F091F82D
:10150C000A2001F0D9F87868FFF76CFF00BF10379C
:10151C00BD4680BD80B582B000AF78600B46FB70D5
:10152C00FB781A460921786800F07BF80A2001F054
:10153C00C3F800BF0837BD4680BD000080B584B03D
:10154C0000AF78600B46FB700023FB73FB782C2BF1
:10155C0001D82D23FB70FB78F02B01D9F023FB7005
:10156C00FB78782B09D8FB782D3B124A82FB0312AF
:10157C005210DB17D31AFB730BE0FB78F02B08D857
:10158C00FB781E330B4A82FB03129210DB17D31A23
:10159C00FB73FB7B2033FB73FB7B1A460B217868B8
:1015AC0000F03FF80A2001F087F800BF1037BD4665
:1015BC0080BD00BF6766666680B584B000AF78609A
:1015CC001E21786800F013F80346FB73FB7B43F095
:1015DC000703BB73BB7B1A461E21786800F021F809
:1015EC000A2001F069F800BF1037BD4680BD80B5F8
:1015FC0086B002AF78600B46FB70FB7803F07F037C
:10160C00DBB2BB7307F10F0307F10E01012200924D
:10161C0001227868FFF744FEFB7B18461037BD4665
:10162C0080BD80B586B002AF78600B46FB70134668
:10163C00BB70FB7863F07F03DBB2BB73BB78FB73CF
:10164C0007F10F0307F10E010122009201227868C5
:10165C00FFF764FE00BF1037BD4680BD80B586B075
:10166C0000AFF8607A601A460B46FB721346BB72E9
:10167C00FB7A63F07F03DBB2FB75FB681868FB68D1
:10168C009B880022194602F074F9FB68986907F1EF
:10169C0017014FF4FA63012204F02EFE00BFFB6821
:1016AC009B69184605F02EFA0346012BF7D1FB680F
:1016BC009869BB7A9AB24FF4FA63796804F01CFE0D
:1016CC0000BFFB689B69184605F01CFA0346012B0A
:1016DC00F7D1FB681868FB689B880122194602F059
:1016EC0048F900BF1837BD4680BD80B483B000AF49
:1016FC007860012318460C37BD4680BC704780B516
:10170C0086B000AFF860B96011461A460B46FB7103
:10171C001346BB80FB68DB697B610121F868FFF72E
:10172C005EFD0E21F868FFF762FF0346FB74FB7C3D
:10173C001A460D21F868FFF774FFFB791A4622212F
:10174C00F868FFF76EFFFB79BA680021F868FFF7BD
:10175C0085FF0321F868FFF742FD1221F868FFF7B7
:10176C0046FF0346FB74FB7C03F00803002B0AD0F6
:10177C00FF221221F868FFF754FF7969F868FFF728
:10178C002EFD01230FE0BB88013BBB80BB88002BE7
:10179C0005D17969F868FFF722FD002303E00120E9
:1017AC0000F08AFFD9E718461837BD4680BD80B5D2
:1017BC0082B000AF786005217868FFF710FD00BF9C
:1017CC000837BD4680BD90B589B000AFF860B960F0
:1017DC001346FB710023FB770023BB6107E0BB6959
:1017EC00BA68134400221A70BB690133BB61FB79E0
:1017FC00BA699A42F3DB0121F868FFF7F0FC122179
:10180C00F868FFF7F4FE0346FB74FB7C03F040031F
:10181C00002B2FD0FF221221F868FFF702FF1321B3
:10182C00F868FFF7E4FE0346BB741021F868FFF775
:10183C00DEFE0346FB74FB7C1A460D21F868FFF7AD
:10184C00F0FEBA7CFB79934228BF1346FB7700234A
:10185C007B610BE07B69BA68D4180021F868FFF74C
:10186C00C6FE034623707B6901337B61FB7F7A697B
:10187C009A42EFDB0521F868FFF7B1FCFB7F1846B5
:10188C002437BD4690BD80B584B000AF78607868D1
:10189C00FFF72BFF0346002B00F0968000217868A1
:1018AC00FFF79DFC0A2000F007FF01217868FFF785
:1018BC009EFE0346FB730A2000F0FEFEFB7B63F0EA
:1018CC007F03BB73BB7B1A4601217868FFF7A9FE27
:1018DC00642000F0F1FE7B681B6A19467868FFF7FC
:1018EC00B7FD7B6893F82A3019467868FFF712FE2B
:1018FC007B6893F82B3019467868FFF71FFE23227C
:10190C000C217868FFF78DFE7868FFF755FE7B6831
:10191C0093F8243019467868FFF7CAFDFF221F217F
:10192C007868FFF77EFE0023BB737B6893F8253045
:10193C001B01DAB27B6893F826305B00DBB21344F0
:10194C00BB73BB7B1A461D217868FFF76AFE78686B
:10195C00FFF748FD7B681B8D1B0A9BB2DBB21A4656
:10196C0020217868FFF75DFE7B681B8DDBB21A4681
:10197C0021217868FFF755FE40217868FFF737FE84
:10198C000346FB73FB7B43F03F03BB73BB7B1A46E5
:10199C0040217868FFF745FE01217868FFF71FFCAE
:1019AC007B680122DA610A2000F086FE4221786809
:1019BC00FFF71DFE0346FB73FB7B122B01D1C823E3
:1019CC0004E04FF4CA7301E040F2F71318461037E5
:1019DC00BD4680BDB0B58EB000AF00F00BFE00F080
:1019EC004BF900F01DFB00F0FDFA00F011FA00F0CD
:1019FC0073FA00F0DFF900F09FF900F0A3FAFFF79B
:101A0C00E7F98E4805F0E6F98D4C3B461846FFF792
:101A1C00BDFB25463C460FCC0FC50FCC0FC594E83B
:101A2C00070085E80700864B864A1A60844B012222
:101A3C009A80834B834A9A60814B02229A81804B15
:101A4C00804A1A617E4B4FF480629A827C4B7E4AAC
:101A5C009A617B4B4FF4DC721A62794B072283F844
:101A6C002420774B042283F82520754B012283F820
:101A7C002620734BFF2283F82A20714B822283F895
:101A8C002B206F4B09221A856D48FFF7FCFE03468D
:101A9C00C82B02D16D4B01221A806948FFF787FED3
:101AAC004FF4FA6000F008FE282001F082FB00F0F1
:101ABC0027FE0121002002F0CDFF00F02FFE282090
:101ACC0001F069FB01224FF48071614801F051FF74
:101ADC00642000F0F1FDFFF70DFAFFF771FA0346F1
:101AEC00002B09D0FFF7F2FA03465A4A1360FFF7AE
:101AFC001DFB0346584A136000F05CF9FFF768F9C8
:101B0C00FFF79EF9FFF7AEF903461846FFF7E8F822
:101B1C000346524A136001225149524800F0E4FE38
:101B2C000A2000F0C9FD4F4800F0BCFF494B1B6870
:101B3C004D491846FEF704FB03461846FFF728F9F3
:101B4C000346FB86444B1B6847491846FEF7F8FAD8
:101B5C0003461846FFF71CF90346BB863F4B1B6830
:101B6C0041491846FEF7ECFA03461846FFF710F900
:101B7C0003467B863A4B1B883B863C4BA1221A7052
:101B8C00FB8E1B0A9BB2DAB2384B5A70FB8EDAB260
:101B9C00364B9A70BB8E1B0A9BB2DAB2334BDA709F
:101BAC00BB8EDAB2314B1A717B8E1B0A9BB2DAB246
:101BBC002E4B5A717B8EDAB22C4B9A713B8E1B0AD0
:101BCC009BB2DAB2294BDA713B8EDAB2274B1A721E
:101BDC004FF4FA73092225491948FFF790FD18486C
:101BEC00FFF7E5FD4FF47A7000F066FD13E04FF45B
:101BFC00FA7309221D491248FFF781FD1048FFF7BF
:101C0C00D6FD4FF4FA7000F057FD194B1B780133D9
:101C1C00DAB2174B1A70174B1B78012B03D0144BED
:101C2C001B78012BE3D9124B00221A7000224FF4BF
:101C3C008071074801F09DFE36E700BFBC01002013
:101C4C0038000020000C01406401002064000020DA
:101C5C0000080140700000206C000020740000207F
:101C6C007800002088000020000020417C0000202B
:101C7C00850000206800002080B594B000AF07F10B
:101C8C00280328220021184605F018FB07F114033D
:101C9C0000221A605A609A60DA601A613B1D0022B9
:101CAC001A605A609A60DA600923BB624FF4803381
:101CBC00FB6200233B630123BB6301233B640223D0
:101CCC007B644FF48033BB644FF4E013FB6407F187
:101CDC002803184602F0DAFE0346002B01D000F070
:101CEC00A7FA0F237B610223BB610023FB614FF436
:101CFC0080633B6200237B6207F1140302211846C8
:101D0C0003F046F90346002B01D000F091FA0323AF
:101D1C007B604FF40073BB604FF40043FB603B1DD2
:101D2C00184603F0C3FA0346002B01D000F080FAEA
:101D3C0000BF5037BD4680BD80B584B000AF3B1DA1
:101D4C0000221A605A609A60184B194A1A60174B95
:101D5C0000229A60154B00221A73144B00221A753C
:101D6C00124B4FF46022DA61104B00225A600F4B79
:101D7C0001221A610D4800F0DFFC0346002B01D054
:101D8C0000F056FA00237B600123BB600023FB604C
:101D9C003B1D1946054800F0EDFE0346002B01D013
:101DAC0000F046FA00BF1037BD4680BD8800002009
:101DBC000024014080B500AF124B134A1A60114B3E
:101DCC00124A5A600F4B00229A600E4B0022DA60C6
:101DDC000C4B4FF480421A610A4B00225A61094B9A
:101DEC0000229A61074B0022DA61064B00221A622C
:101DFC00044801F0EFFD0346002B01D000F018FA67
:101E0C0000BF80BDFC00002000540040A0860100F3
:101E1C0080B584B000AF07F10C0300210A461A808C
:101E2C000A469A700023BB603B4600221A605A6037
:101E3C00274B284A1A60264B4FF0FF325A60244B2E
:101E4C004FF480729A60224803F09CFB0346002BEF
:101E5C0001D000F0EDF900233B7300237B730023CA
:101E6C00BB7307F10C0301221946194803F016FC49
:101E7C000346002B01D000F0DBF901233B72012358
:101E8C007B720123BB720023FB7207F10803012252
:101E9C0019460F4803F072FD0346002B01D000F0E9
:101EAC00C7F900233B7000237B700423BB70002315
:101EBC007B603B4601221946054803F015FE03469C
:101ECC00002B01D000F0B4F900BF1037BD4680BD27
:101EDC00500100200028004080B500AF174B184A75
:101EEC001A60164B4FF482725A60144B00229A609F
:101EFC00124B0022DA60114B00221A610F4B0022A8
:101F0C005A610E4B4FF400729A610C4B1022DA613D
:101F1C000A4B00221A62094B00225A62074B00221C
:101F2C009A62064B0A22DA62044804F061F903460D
:101F3C00002B01D000F07CF900BF80BD64010020B3
:101F4C000030014080B586B000AF07F108030022D5
:101F5C001A605A609A60DA603B4600221A605A6036
:101F6C001E4B1F4A1A601D4B47225A601B4B002206
:101F7C009A601A4B4FF6FF72DA60184B00221A6106
:101F8C00164B00225A61154B00229A61134804F03B
:101F9C00D2FE0346002B01D000F04AF94FF48053D7
:101FAC00BB6007F1080319460C4804F05DFF0346BB
:101FBC00002B01D000F03CF900233B6000237B6038
:101FCC003B461946054805F01BF90346002B01D08A
:101FDC0000F02EF900BF1837BD4680BDBC010020B3
:101FEC00002C014080B582B000AF0C4B5B690B4AF2
:101FFC0043F001035361094B5B6903F001037B6000
:10200C007B68002200210B2001F0A9F80B2001F0C5
:10201C00C2F800BF0837BD4680BD00BF00100240AB
:10202C0080B588B000AF07F1100300221A605A6027
:10203C009A60DA603B4B9B693A4A43F01003936118
:10204C00384B9B6903F01003FB60FB68354B9B69B5
:10205C00344A43F020039361324B9B6903F0200315
:10206C00BB60BB682F4B9B692E4A43F00403936102
:10207C002C4B9B6903F004037B607B68294B9B69A9
:10208C00284A43F008039361264B9B6903F008032D
:10209C003B603B6801220321234801F06AFC0022CB
:1020AC004FF40061204801F064FC00224FF4807171
:1020BC001E4801F05EFC40F603033B6101237B618B
:1020CC000023BB610223FB6107F11003194616487C
:1020DC0001F0B4FA4FF480633B61154B7B61002334
:1020EC00BB6107F1100319460F4801F0A7FA4FF432
:1020FC0080733B6101237B610223BB610223FB6183
:10210C0007F110031946094801F098FA0022002142
:10211C00282001F024F8282001F03DF800BF2037DA
:10212C00BD4680BD00100240000C0140000801407B
:10213C000000111080B586B000AF786007F1100375
:10214C0000210A461A800A469A7007F108030022F9
:10215C001A605A6007F1100300221946786803F0E0
:10216C0035FB3B7C1A464FF4616303FB02F27B7C2C
:10217C0019460B461B015B1A9B001344BA7C134493
:10218C000A337B617B691C4AA2FB0323D90A1B4BD4
:10219C00A3FB01231A0913465B001344DB00CA1A84
:1021AC00D3B23B727B69164AA2FB03235909144B29
:1021BC00A3FB01235A0913461B019B1A9B00CA1A45
:1021CC00D3B27B7279690E4BA3FB01235A091346D8
:1021DC001B019B1A9B00CA1AD3B2BB720023FB6073
:1021EC0007F1080300221946786803F07DFC00BF54
:1021FC001837BD4680BD00BFC5B3A291ABAAAAAA31
:10220C008988888880B582B000AF0346FB80FB8844
:10221C00B3F5806F04D1012203490448FFF7D3FAC8
:10222C0000BF0837BD4680BD680000203800002084
:10223C0080B400AF72B600BFFEE7000080B485B07A
:10224C0000AF154B9B69144A43F001039361124B89
:10225C009B6903F00103BB60BB680F4BDB690E4A43
:10226C0043F08053D3610C4BDB6903F080537B60EC
:10227C007B680A4B5B68FB60FB6823F0E063FB60E8
:10228C00FB6843F00073FB60044AFB68536000BFBB
:10229C001437BD4680BC704700100240000001405E
:1022AC0080B588B000AF786007F1100300221A6087
:1022BC005A609A60DA607B681B68284A934249D15D
:1022CC00274B9B69264A43F400739361244B9B690B
:1022DC0003F40073FB60FB68214B9B69204A43F0BD
:1022EC00040393611E4B9B6903F00403BB60BB6842
:1022FC0001233B6103237B6107F110031946194845
:10230C0001F09CF9184B194A1A60174B00225A60BD
:10231C00154B00229A60144B8022DA60124B4FF45A
:10232C0080721A61104B4FF480625A610E4B20225E
:10233C009A610D4B0022DA610B4800F055FF034601
:10234C00002B01D0FFF774FF7B68074A1A62064A1C
:10235C007B68536200BF2037BD4680BD002401401E
:10236C000010024000080140B800002008000240A4
:10237C0080B588B000AF786007F1100300221A60B6
:10238C005A609A60DA607B681B68154A934223D1C5
:10239C00144B9B69134A43F008039361114B9B69DF
:1023AC0003F00803FB60FB68C0233B6112237B61D5
:1023BC000323FB6107F1100319460B4801F03EF9AA
:1023CC00084BDB69074A43F40013D361054BDB6907
:1023DC0003F40013BB60BB6800BF2037BD4680BD53
:1023EC000054004000100240000C014080B584B045
:1023FC0000AF78607B681B680F4A934218D102F0DB
:10240C001DFB0E4BDB690D4A43F00063D3610B4B94
:10241C00DB6903F00063FB60FB68094B01221A6067
:10242C0000220021292000F09AFE292000F0B3FEA2
:10243C0000BF1037BD4680BD002800400010024090
:10244C003C04424280B588B000AF786007F11003BD
:10245C0000221A605A609A60DA607B681B681B4A1B
:10246C0093422FD11A4B9B69194A43F480539361C1
:10247C00174B9B6903F48053FB60FB68144B9B69FF
:10248C00134A43F004039361114B9B6903F004035B
:10249C00BB60BB68A0233B6102237B610323FB6110
:1024AC0007F1100319460B4801F0C8F840233B61B3
:1024BC0000237B610023BB6107F11003194605481B
:1024CC0001F0BCF800BF2037BD4680BD0030014094
:1024DC00001002400008014080B485B000AF786065
:1024EC007B681B68094A93420BD1094B9B69084ACC
:1024FC0043F400639361064B9B6903F40063FB6038
:10250C00FB6800BF1437BD4680BC7047002C0140EF
:10251C000010024080B400AFFEE780B400AFFEE7CD
:10252C0080B400AFFEE780B400AFFEE780B400AF2C
:10253C00FEE780B400AF00BFBD4680BC704780B4DE
:10254C0000AF00BFBD4680BC704780B400AF00BF79
:10255C00BD4680BC704780B500AF00F091F800BF5D
:10256C0080BD000080B500AF024800F033FF00BF13
:10257C0080BD00BFB800002080B500AF4FF4806074
:10258C0001F010FA00BF80BD80B500AF024803F027
:10259C0063FB00BF80BD00BF5001002080B400AFC2
:1025AC0000BFBD4680BC7047FFF7F8FF0B480C49D5
:1025BC000C4A002302E0D458C4500433C4188C4293
:1025CC00F9D3094A094C002301E013600432A242FA
:1025DC00FBD304F07BFEFFF7FDF9704700000020F1
:1025EC000C000020F07300080C00002008020020F2
:1025FC00FEE7000080B500AF084B1B68074A43F0AC
:10260C0010031360032000F09FFD0F2000F008F86A
:10261C00FFF714FE0023184680BD00BF00200240C7
:10262C0080B582B000AF7860124B1A68124B1B78E1
:10263C0019464FF47A73B3FBF1F3B2FBF3F318467C
:10264C0000F0C5FD0346002B01D001230EE07B6892
:10265C000F2B0AD8002279684FF0FF3000F07FFD75
:10266C00064A7B681360002300E0012318460837F4
:10267C00BD4680BD000000200800002004000020A2
:10268C0080B400AF054B1B781A46054B1B681344EE
:10269C00034A136000BFBD4680BC70470800002091
:1026AC000402002080B400AF024B1B681846BD46E4
:1026BC0080BC70470402002080B584B000AF786005
:1026CC00FFF7F0FFB8607B68FB60FB68B3F1FF3F7E
:1026DC0005D00A4B1B781A46FB681344FB6000BFFD
:1026EC00FFF7E0FF0246BB68D31AFA689A42F7D8A4
:1026FC0000BF00BF1037BD4680BD00BF08000020E2
:10270C0080B400AF044B1B68034A23F00203136030
:10271C0000BFBD4680BC704710E000E080B400AF45
:10272C00044B1B68034A43F00203136000BFBD4611
:10273C0080BC704710E000E080B586B000AF7860D8
:10274C000023FB7500233B610023BB600023FB606F
:10275C007B68002B01D10123BEE07B689B68002BBA
:10276C007B689B6A002B09D17B680022DA627B684C
:10277C00002283F824207868FFF792FD786800F037
:10278C004BFB0346FB757B689B6A03F01003002B25
:10279C0040F09980FB7D002B40F095807B689B6A14
:1027AC0023F4885323F0020343F002027B689A62FD
:1027BC007B685A687B68DB691A437B681B7B5B0010
:1027CC001343BA681343BB607B689B68B3F5807F87
:1027DC0003D07B689B68012B02D14FF4807300E01F
:1027EC0000233A6913433B617B681B7D012B19D194
:1027FC007B681B7B002B09D17B689B69013B5A03CF
:10280C003B69134343F400633B610BE07B689B6AB9
:10281C0043F020027B689A627B68DB6A43F001021A
:10282C007B68DA627B681B685B6823F469417B68B0
:10283C001B683A690A435A607B681B689A68284B84
:10284C0013407A681268B9680B4393607B689B6885
:10285C00B3F5807F03D07B689B68012B04D17B6828
:10286C001B69013B1B05FB607B681B68DB6A23F45F
:10287C0070017B681B68FA680A43DA627B681B6824
:10288C009A68184B1340BA689A420BD17B680022A5
:10289C00DA627B689B6A23F0030343F001027B68D6
:1028AC009A6218E07B689B6A23F0120343F01002D3
:1028BC007B689A627B68DB6A43F001027B68DA62B0
:1028CC000123FB7507E07B689B6A43F010027B6871
:1028DC009A620123FB75FB7D18461837BD4680BDF7
:1028EC00FDF7E1FFFE0E1FFF80B586B000AFF8606C
:1028FC00B9607A600023FB75FB681B68644A9342DD
:10290C0004D0FB681B68634A934206D1604B5B683A
:10291C0003F47023002B40F0B380FB6893F8243051
:10292C00012B01D10223AEE0FB68012283F82420A5
:10293C00F86800F017FA0346FB75FB7D002B40F09E
:10294C009A80FB689B6A23F4706323F0010343F4C1
:10295C008072FB689A62FB681B684E4A934205D1F1
:10296C004B4B5B6803F47023002B15D1FB689B6AFF
:10297C0023F48012FB689A62FB681B685B6803F4A3
:10298C008063002B26D0FB689B6A23F4405343F4EE
:10299C008052FB689A621DE0FB689B6A43F48012CC
:1029AC00FB689A62FB681B68394A934204D0FB6847
:1029BC001B68384A93420DD1354B5B6803F4806336
:1029CC00002B07D0FB689B6A23F4405343F48052DE
:1029DC00FB689A62FB689B6A03F48053002B06D059
:1029EC00FB68DB6A23F00602FB68DA6202E0FB6834
:1029FC000022DA62FB68002283F82420FB681B6A41
:102A0C00254A9A62FB681B6A244ADA62FB681B6AD5
:102A1C00234A1A63FB681B686FF002021A60FB689A
:102A2C001B689A68FB681B6842F480729A60FB68AA
:102A3C00186AFB681B684C331946BA687B6800F04F
:102A4C002DFCFB681B689B6803F46023B3F5602FB7
:102A5C0008D1FB681B689A68FB681B6842F4A002EB
:102A6C009A600FE0FB681B689A68FB681B6842F46D
:102A7C0080129A6006E0FB68002283F8242001E0B3
:102A8C000123FB75FB7D18461837BD4680BD00BF82
:102A9C000024014000280140A72E0008232F000825
:102AAC003F2F000880B584B000AF78600023FB7323
:102ABC007B6893F82430012B01D102233AE07B6828
:102ACC00012283F82420786800F0A6F90346FB73F2
:102ADC00FB7B002B29D17B681B689A687B681B6881
:102AEC0022F480729A607B681B6A93F82130DBB207
:102AFC00022B1AD17B681B6A184600F02FFC034688
:102B0C00FB73FB7B002B0AD17B689B6A23F48853F5
:102B1C0023F0010343F001027B689A6205E07B68B5
:102B2C009B6A43F040027B689A627B68002283F8C0
:102B3C002420FB7B18461037BD4680BD80B483B083
:102B4C0000AF786000BF0C37BD4680BC704780B4C6
:102B5C0083B000AF786000BF0C37BD4680BC7047B7
:102B6C0080B483B000AF786000BF0C37BD4680BC2A
:102B7C007047000080B485B000AF786039600023E6
:102B8C00FB730023BB607B6893F82430012B01D1CD
:102B9C000223DCE07B68012283F824203B685B681D
:102BAC00062B1CD87B681B68596B3B685A6813460C
:102BBC009B001344053B1F2202FA03F3DB4319402D
:102BCC003B6818683B685A6813469B001344053BE6
:102BDC0000FA03F27B681B680A435A633CE03B68CB
:102BEC005B680C2B1CD87B681B68196B3B685A689C
:102BFC0013469B001344233B1F2202FA03F3DB43CF
:102C0C0019403B6818683B685A6813469B0013448C
:102C1C00233B00FA03F27B681B680A431A631BE030
:102C2C007B681B68D96A3B685A6813469B0013443F
:102C3C00413B1F2202FA03F3DB4319403B6818683F
:102C4C003B685A6813469B001344413B00FA03F25D
:102C5C007B681B680A43DA623B681B68092B1CD92A
:102C6C007B681B68D9683B681A6813465B00134481
:102C7C001E3B072202FA03F3DB4319403B689868BA
:102C8C003B681A6813465B0013441E3B00FA03F2C0
:102C9C007B681B680A43DA6019E07B681B6819695A
:102CAC003B681A6813465B001344072202FA03F3CD
:102CBC00DB4319403B6898683B681A6813465B0015
:102CCC00134400FA03F27B681B680A431A613B68E1
:102CDC001B68102B03D03B681B68112B32D17B680F
:102CEC001B681D4A934225D17B681B689B6803F4C3
:102CFC000003002B26D17B681B689A687B681B68D5
:102D0C0042F400029A603B681B68102B1AD1134BDB
:102D1C001B68134AA2FB03239A0C13469B00134413
:102D2C005B00BB6002E0BB68013BBB60BB68002B77
:102D3C00F9D107E07B689B6A43F020027B689A62BA
:102D4C000123FB737B68002283F82420FB7B18464D
:102D5C001437BD4680BC70470024014000000020A1
:102D6C0083DE1B4380B584B000AF78600023FB602A
:102D7C000023BB607B681B689B6803F00103012B7D
:102D8C0040D07B681B689A687B681B6842F0010224
:102D9C009A601F4B1B681F4AA2FB03239B0CBB6052
:102DAC0002E0BB68013BBB60BB68002BF9D1FFF7AD
:102DBC0079FCF8601FE0FFF775FC0246FB68D31A3C
:102DCC00022B18D97B681B689B6803F00103012B4D
:102DDC0011D07B689B6A43F010027B689A627B6817
:102DEC00DB6A43F001027B68DA627B68002283F8BD
:102DFC002420012307E07B681B689B6803F0010318
:102E0C00012BD8D1002318461037BD4680BD00BF1A
:102E1C000000002083DE1B4380B584B000AF7860D7
:102E2C000023FB607B681B689B6803F00103012B8C
:102E3C002ED17B681B689A687B681B6822F00102A4
:102E4C009A60FFF72FFCF8601BE0FFF72BFC0246A3
:102E5C00FB68D31A022B14D97B681B689B6803F0A0
:102E6C000103012B0DD17B689B6A43F010027B6838
:102E7C009A627B68DB6A43F001027B68DA620123A9
:102E8C0007E07B681B689B6803F00103012BDCD017
:102E9C00002318461037BD4680BD80B584B000AF06
:102EAC0078607B685B6AFB60FB689B6A03F050038D
:102EBC00002B27D1FB689B6A43F40072FB689A6273
:102ECC00FB681B689B6803F46023B3F5602F15D176
:102EDC00FB681B7B002B11D1FB689B6A23F480726F
:102EEC00FB689A62FB689B6A03F48053002B05D144
:102EFC00FB689B6A43F00102FB689A62F868FFF773
:102F0C001DFE04E0FB681B6A1B6B7868984700BFCA
:102F1C001037BD4680BD80B584B000AF78607B684B
:102F2C005B6AFB60F868FFF712FE00BF1037BD4606
:102F3C0080BD80B584B000AF78607B685B6AFB6055
:102F4C00FB689B6A43F04002FB689A62FB68DB6A91
:102F5C0043F00402FB68DA62F868FFF701FE00BF79
:102F6C001037BD4680BD000080B485B000AF7860DE
:102F7C007B6803F00703FB600C4BDB68BB60BA6833
:102F8C004FF6FF031340BB60FB681A02BB68134388
:102F9C0043F0BF6343F40033BB60044ABB68D360A7
:102FAC0000BF1437BD4680BC704700BF00ED00E089
:102FBC0080B400AF044BDB681B0A03F00703184610
:102FCC00BD4680BC704700BF00ED00E080B483B00C
:102FDC0000AF0346FB7197F90730002B0BDBFB7935
:102FEC0003F01F02064997F907305B09012000FA2C
:102FFC0002F241F8232000BF0C37BD4680BC70475D
:10300C0000E100E080B483B000AF0346FB7197F998
:10301C000730002B12DBFB7903F01F020A4997F9EA
:10302C0007305B09012000FA02F2203341F823201B
:10303C00BFF34F8F00BFBFF36F8F00BF00BF0C37C4
:10304C00BD4680BC704700BF00E100E080B483B097
:10305C0000AF03463960FB7197F90730002B0ADB90
:10306C003B68DAB20C4997F907301201D2B20B4423
:10307C0083F800230AE03B68DAB20849FB7903F0D5
:10308C000F03043B1201D2B20B441A7600BF0C376B
:10309C00BD4680BC704700BF00E100E000ED00E0E1
:1030AC0080B489B000AFF860B9607A60FB6803F057
:1030BC000703FB61FB69C3F10703042B28BF04233F
:1030CC00BB61FB690433062B02D9FB69033B00E0AF
:1030DC0000237B614FF0FF32BB6902FA03F3DA4342
:1030EC00BB681A407B699A404FF0FF317B6901FA4B
:1030FC0003F3D9437B680B40134318462437BD4672
:10310C0080BC704780B582B000AF78607B68013BB3
:10311C00B3F1807F01D301230FE00A4A7B68013BA6
:10312C0053600F214FF0FF30FFF790FF054B00224B
:10313C009A60044B07221A60002318460837BD46D4
:10314C0080BD00BF10E000E080B582B000AF7860B9
:10315C007868FFF709FF00BF0837BD4680BD80B512
:10316C0086B000AF0346B9607A60FB7300237B61C5
:10317C00FFF71EFF78617A68B9687869FFF790FFEE
:10318C00024697F90F3011461846FFF75FFF00BF54
:10319C001837BD4680BD80B582B000AF0346FB71C9
:1031AC0097F907301846FFF711FF00BF0837BD46E7
:1031BC0080BD80B582B000AF0346FB7197F9073034
:1031CC001846FFF71FFF00BF0837BD4680BD80B50E
:1031DC0082B000AF78607868FFF794FF034618461A
:1031EC000837BD4680BD000080B485B000AF786064
:1031FC000023FB607B68002B01D1012343E07B683B
:10320C001B681A46224B1344224AA2FB03231B09B8
:10321C009A007B681A647B681F4ADA637B68022217
:10322C0083F821207B681B681B68FB60FB6823F418
:10323C007F5323F03003FB607B685A687B689B6884
:10324C001A437B68DB681A437B681B691A437B68EB
:10325C005B691A437B689B691A437B68DB69134380
:10326C00FA681343FB607B681B68FA681A607B681A
:10327C0000229A637B68012283F821207B6800225C
:10328C0083F82020002318461437BD4680BC7047B5
:10329C00F8FFFDBFCDCCCCCC0000024080B586B091
:1032AC0000AFF860B9607A603B600023FB75FB6887
:1032BC0093F82030012B01D102234BE0FB68012253
:1032CC0083F82020FB6893F82130DBB2012B3AD134
:1032DC00FB68022283F82120FB6800229A63FB68BA
:1032EC001B681A68FB681B6822F001021A603B68B5
:1032FC007A68B968F86800F073F9FB68DB6A002B30
:10330C0008D0FB681B681A68FB681B6842F00E0249
:10331C001A600FE0FB681B681A68FB681B6822F0D8
:10332C0004021A60FB681B681A68FB681B6842F091
:10333C000A021A60FB681B681A68FB681B6842F07B
:10334C0001021A6005E0FB68002283F820200223AA
:10335C00FB75FB7D18461837BD4680BD80B485B023
:10336C0000AF78600023FB737B6893F82130DBB2ED
:10337C00022B08D07B6804229A637B68002283F8B6
:10338C002020012320E07B681B681A687B681B687F
:10339C0022F00E021A607B681B681A687B681B6837
:1033AC0022F001021A607B681A6C7B68DB6B0121CE
:1033BC0001FA02F25A607B68012283F821207B68B3
:1033CC00002283F82020FB7B18461437BD4680BCB6
:1033DC007047000080B584B000AF78607B68DB6B11
:1033EC001B68FB607B681B681B68BB607B681B6C85
:1033FC0004229A40FB681340002B4FD0BB6803F0AB
:10340C000403002B4AD07B681B681B6803F0200365
:10341C00002B07D17B681B681A687B681B6822F03D
:10342C0004021A607B681B68664A934229D07B6849
:10343C001B68654A934222D07B681B68634A93429F
:10344C001AD07B681B68624A934212D07B681B6857
:10345C00604A93420AD07B681B685F4A934202D150
:10346C004FF480030EE04FF080630BE04FF48023A9
:10347C0008E04FF4804305E04FF4806302E0402302
:10348C0000E00423554A53607B68DB6A002B00F094
:10349C0094807B68DB6A786898478EE07B681B6C4D
:1034AC0002229A40FB681340002B56D0BB6803F0F5
:1034BC000203002B51D07B681B681B6803F02003B0
:1034CC00002B0BD17B681B681A687B681B6822F089
:1034DC000A021A607B68012283F821207B681B6832
:1034EC00384A934229D07B681B68374A934222D0D2
:1034FC007B681B68354A93421AD07B681B68344A38
:10350C00934212D07B681B68324A93420AD07B6884
:10351C001B68314A934202D14FF400130EE04FF076
:10352C0000730BE04FF4003308E04FF4005305E058
:10353C004FF4007302E0202300E00223274A53607B
:10354C007B68002283F820207B689B6A002B34D098
:10355C007B689B6A786898472FE07B681B6C082215
:10356C009A40FB681340002B28D0BB6803F008037B
:10357C00002B23D07B681B681A687B681B6822F0C1
:10358C000E021A607B681A6C7B68DB6B012101FAF6
:10359C0002F25A607B6801229A637B68012283F8ED
:1035AC0021207B68002283F820207B681B6B002B7A
:1035BC0004D07B681B6B7868984700BF00BF10373E
:1035CC00BD4680BD080002401C0002403000024095
:1035DC0044000240580002406C00024000000240CF
:1035EC0080B485B000AFF860B9607A603B60FB686E
:1035FC001A6CFB68DB6B012101FA02F25A60FB6862
:10360C001B683A685A60FB685B68102B08D1FB6832
:10361C001B687A689A60FB681B68BA68DA6007E016
:10362C00FB681B68BA689A60FB681B687A68DA608A
:10363C0000BF1437BD4680BC7047000080B48BB00F
:10364C0000AF7860396000237B6200233B6269E144
:10365C0001227B6A02FA03F3FB613B681B68FA697F
:10366C001340BB61BA69FB699A4240F058813B68D0
:10367C005B689A4A93425ED0984A934275D8984AAE
:10368C00934258D0964A93426FD8964A934252D05E
:10369C00944A934269D8944A93424CD0924A9342AA
:1036AC0063D8924A934246D0904A93425DD8122BEB
:1036BC002AD8122B59D801A252F823F0433700080C
:1036CC001D3700082F3700087137000877370008BE
:1036DC007737000877370008773700087737000806
:1036EC0077370008773700087737000877370008F6
:1036FC0077370008773700087737000877370008E6
:10370C002537000839370008794A934213D02CE04A
:10371C003B68DB683B6229E03B68DB6804333B6257
:10372C0024E03B68DB6808333B621FE03B68DB68E6
:10373C000C333B621AE03B689B68002B02D10423DC
:10374C003B6213E03B689B68012B05D108233B626D
:10375C007B68FA691A6109E008233B627B68FA69A5
:10376C005A6103E000233B6200E000BFBB69FF2B02
:10377C0001D87B6801E07B6804337B61BB69FF2B5C
:10378C0002D87B6A9B0002E07B6A083B9B003B6192
:10379C007B691A680F213B6901FA03F3DB431A407A
:1037AC00396A3B6901FA03F31A437B691A603B6877
:1037BC005B6803F08053002B00F0B1804D4B9B698C
:1037CC004C4A43F0010393614A4B9B6903F001039C
:1037DC00BB60BB68484A7B6A9B08023352F82330B3
:1037EC00FB607B6A03F003039B000F2202FA03F3D6
:1037FC00DB43FA681340FB607B68404A934213D06A
:10380C007B683F4A93420DD07B683E4A934207D077
:10381C007B683D4A934201D1032306E0042304E074
:10382C00022302E0012300E000237A6A02F0030283
:10383C0092009340FA681343FB602F497B6A9B0804
:10384C000233FA6841F823203B685B6803F4801369
:10385C00002B06D02D4B9A682C49BB6913438B6007
:10386C0006E02A4B9A68BB69DB43284913408B60FE
:10387C003B685B6803F40013002B06D0234BDA681B
:10388C002249BB691343CB6006E0204BDA68BB6965
:10389C00DB431E491340CB603B685B6803F4003389
:1038AC00002B06D0194B5A681849BB6913434B605F
:1038BC0006E0164B5A68BB69DB43144913404B6056
:1038CC003B685B6803F48033002B21D00F4B1A68E4
:1038DC000E49BB6913430B6021E000BF000032109E
:1038EC000000311000002210000021100000121006
:1038FC0000001110001002400000014000080140BF
:10390C00000C014000100140001401400004014073
:10391C000B4B1A68BB69DB43094913400B607B6A8C
:10392C0001337B623B681A687B6A22FA03F3002B33
:10393C007FF48EAE00BF00BF2C37BD4680BC7047F5
:10394C000004014080B485B000AF78600B467B80EA
:10395C007B689A687B881340002B02D00123FB7391
:10396C0001E00023FB73FB7B18461437BD4680BC7B
:10397C00704780B483B000AF78600B467B801346F1
:10398C007B707B78002B03D07A887B681A6103E00C
:10399C007B881A047B681A6100BF0C37BD4680BC5B
:1039AC007047000080B582B000AF0346FB80084B27
:1039BC005A69FB881340002B06D0054AFB885361DB
:1039CC00FB881846FEF71EFC00BF0837BD4680BDBD
:1039DC000004014080B584B000AF78607B68002B98
:1039EC0001D101232BE17B6893F83D30DBB2002B36
:1039FC0006D17B68002283F83C207868FEF7B8FC7F
:103A0C007B68242283F83D207B681B681A687B68DE
:103A1C001B6822F001021A607B681B681A687B68BD
:103A2C001B6842F400421A607B681B681A687B684A
:103A3C001B6822F400421A6001F0F2FBF8607B680C
:103A4C005B68814A934207D8FB68804A934294BFD3
:103A5C0001230023DBB206E0FB687D4A934294BF4E
:103A6C0001230023DBB2002B01D00123E7E0FB682C
:103A7C00784AA2FB03239B0CBB607B681B685B68CA
:103A8C0023F03F017B681B68BA680A435A607B6865
:103A9C001B681B6A23F03F017B685B686A4A934290
:103AAC0002D8BB68013309E0BB684FF4967202FB85
:103ABC0003F3694AA2FB03239B0901337A6812685A
:103ACC000B4313627B681B68DB6923F44F4222F0C3
:103ADC00FF027B685B685C498B4219D8FB68591EF6
:103AEC007B685B685B00B1FBF3F3591C40F6FC731D
:103AFC000B40002B0AD0FB68591E7B685B685B008F
:103B0C00B1FBF3F30133C3F30B0351E004234FE098
:103B1C007B689B68002B11D1FB68581E7B68596829
:103B2C000B465B000B44B0FBF3F30133C3F30B0305
:103B3C00002B0CBF01230023DBB212E0FB68581EE4
:103B4C007B6859680B469B000B4499000B44B0FBF7
:103B5C00F3F30133C3F30B03002B0CBF012300233E
:103B6C00DBB2002B01D0012322E07B689B68002B89
:103B7C000ED1FB68581E7B6859680B465B000B44E2
:103B8C00B0FBF3F30133C3F30B0343F400430FE037
:103B9C00FB68581E7B6859680B469B000B449900C8
:103BAC000B44B0FBF3F30133C3F30B0343F4404377
:103BBC00796809681343CB617B681B681B6823F029
:103BCC00C0017B68DA697B681B6A1A437B681B68D7
:103BDC000A431A607B681B689B6823F4034323F039
:103BEC00FF037A6811697A68D26811437A6812689F
:103BFC000B4393607B681B68DB6823F0FF017B68D9
:103C0C005A697B689B691A437B681B680A43DA60B4
:103C1C007B681B681A687B681B6842F001021A609B
:103C2C007B6800221A647B68202283F83D207B6825
:103C3C0000221A637B68002283F83E20002318467A
:103C4C001037BD4680BD00BFA08601007F841E00DA
:103C5C00FF083D0083DE1B43D34D621080B588B056
:103C6C0002AFF8607A601A460B467B8113463B81A3
:103C7C00FEF718FD7861FB6893F83D30DBB2202B22
:103C8C0040F0E0807B690093192301227049F868A9
:103C9C0000F09EFC0346002B01D00223D3E0FB680E
:103CAC0093F83C30012B01D10223CCE0FB680122BC
:103CBC0083F83C20FB681B681B6803F00103012B95
:103CCC0007D0FB681B681A68FB681B6842F001028E
:103CDC001A60FB681B681A68FB681B6822F4006298
:103CEC001A60FB68212283F83D20FB68102283F8C0
:103CFC003E20FB6800221A64FB687A685A62FB68F3
:103D0C003A895A85FB685B8D9AB2FB681A85FB6809
:103D1C00504ADA6279897B693A6AF86800F008FBE4
:103D2C000346002B01D001238DE000233B61FB688F
:103D3C001B685B693B61FB681B689B693B613B696A
:103D4C0066E07A69396AF86800F05CFD0346002B7E
:103D5C000DD0FB681B6C042B07D1FB681B681A6821
:103D6C00FB681B6842F400721A6001236BE0FB686D
:103D7C005B6A1A78FB681B681A61FB685B6A5A1CE1
:103D8C00FB685A62FB685B8D9BB2013B9AB2FB6885
:103D9C005A85FB681B8D013B9AB2FB681A85FB6840
:103DAC001B685B6903F00403042B1BD1FB681B8DA0
:103DBC00002B17D0FB685B6A1A78FB681B681A61CA
:103DCC00FB685B6A5A1CFB685A62FB685B8D9BB292
:103DDC00013B9AB2FB685A85FB681B8D013B9AB27A
:103DEC00FB681A857A69396AF86800F053FD034656
:103DFC00002B0DD0FB681B6C042B07D1FB681B68D8
:103E0C001A68FB681B6842F400721A6001231AE0FE
:103E1C00FB681B8D002B94D1FB681B681A68FB6830
:103E2C001B6842F400721A60FB68202283F83D2064
:103E3C00FB68002283F83E20FB68002283F83C20BC
:103E4C00002300E0022318461837BD4680BD00BF92
:103E5C00020010000000FFFF80B58CB002AFF860CC
:103E6C007A601A460B467B8113463B8100233B62EA
:103E7C00FEF718FC7862FB6893F83D30DBB2202B20
:103E8C0040F04B827B6A0093192301227F49F8682A
:103E9C0000F09EFB0346002B01D002233EE2FB68A0
:103EAC0093F83C30012B01D1022337E2FB6801224D
:103EBC0083F83C20FB681B681B6803F00103012B93
:103ECC0007D0FB681B681A68FB681B6842F001028C
:103EDC001A60FB681B681A68FB681B6822F4006296
:103EEC001A60FB68222283F83D20FB68102283F8BD
:103EFC003E20FB6800221A64FB687A685A62FB68F1
:103F0C003A895A85FB685B8D9AB2FB681A85FB6807
:103F1C005F4ADA6279897B6A3A6BF86800F08AFA50
:103F2C000346002B01D00123F8E1FB681B8D002B0D
:103F3C0013D10023FB61FB681B685B69FB61FB68A9
:103F4C001B689B69FB61FB69FB681B681A68FB6853
:103F5C001B6842F400721A60CCE1FB681B8D012BCC
:103F6C001ED1FB681B681A68FB681B6822F4806210
:103F7C001A6072B600BF0023BB61FB681B685B69EB
:103F8C00BB61FB681B689B69BB61BB69FB681B68F9
:103F9C001A68FB681B6842F400721A6062B635E05E
:103FAC00FB681B8D022B1ED1FB681B681A68FB6813
:103FBC001B6842F400621A6072B600BF00237B617A
:103FCC00FB681B685B697B61FB681B689B697B6199
:103FDC007B69FB681B681A68FB681B6822F48062AB
:103FEC001A6062B612E0FB681B681A68FB681B68F3
:103FFC0042F480621A6000233B61FB681B685B69BA
:10400C003B61FB681B689B693B613B6972E1FB6828
:10401C001B8D032B00F21F81FB681B8D012B23D101
:10402C007A6A396BF86800F07DFC0346002B01D0EE
:10403C00012373E1FB681B681A69FB685B6AD2B2E7
:10404C001A70FB685B6A5A1CFB685A62FB681B8D12
:10405C00013B9AB2FB681A85FB685B8D9BB2013BF6
:10406C009AB2FB685A8545E1FB681B8D022B52D135
:10407C007B6A00933B6B00220649F86800F0A8FAB3
:10408C000346002B08D0012348E100BF02001000BA
:10409C000000FFFF0400010072B600BFFB681B6844
:1040AC001A68FB681B6842F400721A60FB681B6894
:1040BC001A69FB685B6AD2B21A70FB685B6A5A1C9D
:1040CC00FB685A62FB681B8D013B9AB2FB681A8530
:1040DC00FB685B8D9BB2013B9AB2FB685A8562B65A
:1040EC0000BFFB681B681A69FB685B6AD2B21A7066
:1040FC00FB685B6A5A1CFB685A62FB681B8D013BB0
:10410C009AB2FB681A85FB685B8D9BB2013B9AB235
:10411C00FB685A85EEE07B6A00933B6B0022814979
:10412C00F86800F055FA0346002B01D00123F5E0A6
:10413C00FB681B681A68FB681B6822F480621A60B3
:10414C0072B600BFFB681B681A69FB685B6AD2B267
:10415C001A70FB685B6A5A1CFB685A62FB681B8D01
:10416C00013B9AB2FB681A85FB685B8D9BB2013BE5
:10417C009AB2FB685A856C4B1B68DB086B4AA2FB36
:10418C0003231A0A13469B001344DA00D31A3B622A
:10419C003B6A013B3B623B6A002B18D1FB68002257
:1041AC001A63FB68202283F83D20FB68002283F809
:1041BC003E20FB681B6C43F02002FB681A6462B65D
:1041CC0000BFFB68002283F83C200123A6E0FB68BB
:1041DC001B685B6903F00403042BD9D1FB681B68D3
:1041EC001A68FB681B6842F400721A60FB681B6853
:1041FC001A69FB685B6AD2B21A70FB685B6A5A1C5C
:10420C00FB685A62FB681B8D013B9AB2FB681A85EE
:10421C00FB685B8D9BB2013B9AB2FB685A8562B618
:10422C0000BFFB681B681A69FB685B6AD2B21A7024
:10423C00FB685B6A5A1CFB685A62FB681B8D013B6E
:10424C009AB2FB681A85FB685B8D9BB2013B9AB2F4
:10425C00FB685A854EE07A6A396BF86800F062FBAD
:10426C000346002B01D0012358E0FB681B681A6938
:10427C00FB685B6AD2B21A70FB685B6A5A1CFB68FB
:10428C005A62FB681B8D013B9AB2FB681A85FB686E
:10429C005B8D9BB2013B9AB2FB685A85FB681B682D
:1042AC005B6903F00403042B24D1FB681B8D032BE7
:1042BC0007D1FB681B681A68FB681B6822F48062D4
:1042CC001A60FB681B681A69FB685B6AD2B21A70C9
:1042DC00FB685B6A5A1CFB685A62FB681B8D013BCE
:1042EC009AB2FB681A85FB685B8D9BB2013B9AB254
:1042FC00FB685A85FB681B8D002B7FF488AEFB682E
:10430C00202283F83D20FB68002283F83E20FB68C6
:10431C00002283F83C20002300E0022318462837B3
:10432C00BD4680BD040001000000002089B5F814D2
:10433C0080B588B002AFF8607A603B600B467B8139
:10434C00FB68DB6A7B617B69082B06D07B69012BE0
:10435C0003D07B6913F5803F08D1FB681B681A6892
:10436C00FB681B6842F480721A600BE0FB681B6BE5
:10437C00122B07D1FB681B681A68FB681B6842F498
:10438C0080721A603B6800937B6800224FF0011129
:10439C00F86800F01DF90346002B0DD0FB681B6874
:1043AC001B6803F48073B3F5807F03D1FB684FF473
:1043BC0000721A64032335E0FB681B69B3F5804F68
:1043CC0008D17B89DBB21A46FB681B6802F0FE023F
:1043DC001A611BE07B89DB11DBB203F00603DBB255
:1043EC0063F00F03DAB2FB681B681A613B687A68EA
:1043FC000E49F86800F066F90346002B01D0012342
:10440C0010E07B89DAB2FB681B681A613B687A683A
:10441C000749F86800F056F90346002B01D0012338
:10442C0000E0002318461837BD4680BD0800010087
:10443C000200010080B588B002AFF8607A603B6082
:10444C000B467B81FB68DB6A7B61FB681B681A6827
:10445C00FB681B6842F480621A607B69082B06D0EB
:10446C007B69012B03D07B6913F5803F08D1FB6876
:10447C001B681A68FB681B6842F480721A600BE0B8
:10448C00FB681B6B112B07D1FB681B681A68FB6858
:10449C001B6842F480721A603B6800937B680022B0
:1044AC004FF00111F86800F093F80346002B0DD083
:1044BC00FB681B681B6803F48073B3F5807F03D122
:1044CC00FB684FF400721A64032379E0FB681B69E4
:1044DC00B3F5804F08D17B89DBB243F00103DAB22C
:1044EC00FB681B681A615FE07B89DB11DBB203F0B0
:1044FC000603DBB263F00F03DAB2FB681B681A61C8
:10450C003B687A683049F86800F0DCF80346002B09
:10451C0001D0012354E07B89DAB2FB681B681A6175
:10452C003B687A682949F86800F0CCF80346002B00
:10453C0001D0012344E000233B61FB681B685B69ED
:10454C003B61FB681B689B693B613B69FB681B68B3
:10455C001A68FB681B6842F480721A603B6800930F
:10456C007B6800224FF00111F86800F031F8034627
:10457C00002B0DD0FB681B681B6803F48073B3F52C
:10458C00807F03D1FB684FF400721A64032317E099
:10459C007B89DB11DBB203F00603DBB263F00E03A5
:1045AC00DAB2FB681B681A613B687A680749F868DD
:1045BC0000F088F80346002B01D0012300E0002313
:1045CC0018461837BD4680BD0800010002000100E6
:1045DC0080B584B000AFF860B9603B601346FB71E6
:1045EC0048E03B68B3F1FF3F44D0FEF75BF802466E
:1045FC00BB69D31A3A689A4202D33B68002B39D173
:10460C00BB681B0CDBB2012B0DD1FB681B685B6913
:10461C00DA43BB6813409BB2002B0CBF0123002371
:10462C00DBB21A460CE0FB681B689B69DA43BB687B
:10463C0013409BB2002B0CBF01230023DBB21A46A4
:10464C00FB799A4216D1FB6800221A63FB68202280
:10465C0083F83D20FB68002283F83E20FB681B6C2E
:10466C0043F02002FB681A64FB68002283F83C20AC
:10467C00012323E0BB681B0CDBB2012B0DD1FB68C3
:10468C001B685B69DA43BB6813409BB2002B0CBF01
:10469C0001230023DBB21A460CE0FB681B689B6904
:1046AC00DA43BB6813409BB2002B0CBF01230023E1
:1046BC00DBB21A46FB799A4293D000231846103786
:1046CC00BD4680BD80B584B000AFF860B9607A603B
:1046DC003B6071E0FB681B685B6903F48063B3F5B6
:1046EC00806F23D1FB681B681A68FB681B6842F457
:1046FC0000721A60FB681B686FF480625A61FB6879
:10470C0000221A63FB68202283F83D20FB680022FC
:10471C0083F83E20FB681B6C43F00402FB681A64B0
:10472C00FB68002283F83C20012367E07B68B3F12F
:10473C00FF3F41D0FDF7B6FF02463B68D31A7A68BB
:10474C009A4202D37B68002B36D1BB681B0CDBB2C0
:10475C00012B0CD1FB681B685B69DA43BB68134007
:10476C009BB2002B14BF01230023DBB20BE0FB68D0
:10477C001B689B69DA43BB6813409BB2002B14BFC8
:10478C0001230023DBB2002B16D0FB6800221A6336
:10479C00FB68202283F83D20FB68002283F83E2032
:1047AC00FB681B6C43F02002FB681A64FB68002258
:1047BC0083F83C20012321E0BB681B0CDBB2012BEE
:1047CC000CD1FB681B685B69DA43BB6813409BB276
:1047DC00002B14BF01230023DBB20BE0FB681B682A
:1047EC009B69DA43BB6813409BB2002B14BF0123B7
:1047FC000023DBB2002B7FF46DAF0023184610377B
:10480C00BD4680BD80B584B000AFF860B9607A60F9
:10481C0034E0F86800F0E3F80346002B01D00123E4
:10482C0034E0BB68B3F1FF3F28D0FDF73BFF0246F5
:10483C007B68D31ABA689A4202D3BB68002B1DD18D
:10484C00FB681B685B6903F08003802B16D0FB6848
:10485C0000221A63FB68202283F83D20FB680022AB
:10486C0083F83E20FB681B6C43F02002FB681A6443
:10487C00FB68002283F83C20012307E0FB681B68DF
:10488C005B6903F08003802BC3D1002318461037DB
:10489C00BD4680BD80B584B000AFF860B9607A6069
:1048AC0034E0F86800F09BF80346002B01D001239C
:1048BC0034E0BB68B3F1FF3F28D0FDF7F3FE0246AE
:1048CC007B68D31ABA689A4202D3BB68002B1DD1FD
:1048DC00FB681B685B6903F00403042B16D0FB68B0
:1048EC0000221A63FB68202283F83D20FB6800221B
:1048FC0083F83E20FB681B6C43F02002FB681A64B3
:10490C00FB68002283F83C20012307E0FB681B684E
:10491C005B6903F00403042BC3D100231846103742
:10492C00BD4680BD80B584B000AFF860B9607A60D8
:10493C0049E0FB681B685B6903F01003102B19D16D
:10494C00FB681B686FF010025A61FB6800221A6347
:10495C00FB68202283F83D20FB68002283F83E2070
:10496C00FB681A6CFB681A64FB68002283F83C2015
:10497C00012330E0FDF796FE02467B68D31ABA6835
:10498C009A4202D3BB68002B1DD1FB681B685B6984
:10499C0003F04003402B16D0FB6800221A63FB681F
:1049AC00202283F83D20FB68002283F83E20FB6820
:1049BC001B6C43F02002FB681A64FB68002283F82E
:1049CC003C20012307E0FB681B685B6903F0400394
:1049DC00402BAED1002318461037BD4680BD80B4A5
:1049EC0083B000AF78607B681B685B6903F48063FD
:1049FC00B3F5806F1BD17B681B686FF480625A61C2
:104A0C007B6800221A637B68202283F83D207B6838
:104A1C00002283F83E207B681B6C43F004027B6809
:104A2C001A647B68002283F83C20012300E00023F9
:104A3C0018460C37BD4680BC7047000080B400AFF0
:104A4C00034B01221A6000BFBD4680BC704700BFFB
:104A5C0020000E4280B483B000AF78600B46FB7030
:104A6C00094B1B69084A23F004031361FB78012BE3
:104A7C0001D130BF02E040BF20BF20BF00BF0C37C8
:104A8C00BD4680BC704700BF00ED00E080B586B02D
:104A9C0000AF78607B68002B01D1012372E27B6848
:104AAC001B6803F00103002B00F08780924B5B68BE
:104ABC0003F00C03042B0CD08F4B5B6803F00C033E
:104ACC00082B12D18C4B5B6803F48033B3F5803F19
:104ADC000BD1894B1B6803F40033002B6CD07B6823
:104AEC005B68002B68D101234CE27B685B68B3F5F3
:104AFC00803F06D1804B1B687F4A43F480331360A0
:104B0C002EE07B685B68002B0CD17B4B1B687A4AD0
:104B1C0023F480331360784B1B68774A23F480238B
:104B2C0013601DE07B685B68B3F5A02F0CD1724B52
:104B3C001B68714A43F4802313606F4B1B686E4AE9
:104B4C0043F4803313600BE06B4B1B686A4A23F40D
:104B5C0080331360684B1B68674A23F4802313600F
:104B6C007B685B68002B13D0FDF79CFD386108E077
:104B7C00FDF798FD02463B69D31A642B01D9032338
:104B8C0000E25D4B1B6803F40033002BF0D014E003
:104B9C00FDF788FD386108E0FDF784FD02463B69AE
:104BAC00D31A642B01D90323ECE1534B1B6803F498
:104BBC000033002BF0D100E000BF7B681B6803F0D2
:104BCC000203002B63D04C4B5B6803F00C03002BEF
:104BDC000BD0494B5B6803F00C03082B1CD1464BE4
:104BEC005B6803F48033002B16D1434B1B6803F036
:104BFC000203002B05D07B681B69012B01D001231C
:104C0C00C0E13D4B1B6823F0F8027B685B69DB005D
:104C1C00394913430B603AE07B681B69002B20D0A9
:104C2C00364B01221A60FDF73DFD386108E0FDF7B7
:104C3C0039FD02463B69D31A022B01D90323A1E1AA
:104C4C002D4B1B6803F00203002BF0D02A4B1B6882
:104C5C0023F0F8027B685B69DB00274913430B6088
:104C6C0015E0264B00221A60FDF71CFD386108E0A8
:104C7C00FDF718FD02463B69D31A022B01D9032319
:104C8C0080E11D4B1B6803F00203002BF0D17B6805
:104C9C001B6803F00803002B3AD07B689B69002B40
:104CAC0019D0174B01221A60FDF7FCFC386108E0A3
:104CBC00FDF7F8FC02463B69D31A022B01D90323FA
:104CCC0060E10D4B5B6A03F00203002BF0D0012076
:104CDC0000F0CEFA1CE00A4B00221A60FDF7E2FC51
:104CEC0038610FE0FDF7DEFC02463B69D31A022B5C
:104CFC0008D9032346E100BF0010024000004242E5
:104D0C0080044242924B5B6A03F00203002BE9D110
:104D1C007B681B6803F00403002B00F0A6800023C3
:104D2C00FB758B4BDB6903F08053002B0DD1884B4B
:104D3C00DB69874A43F08053D361854BDB6903F011
:104D4C008053BB60BB680123FB75824B1B6803F46B
:104D5C008073002B18D17F4B1B687E4A43F4807301
:104D6C001360FDF79FFC386108E0FDF79BFC0246E1
:104D7C003B69D31A642B01D9032303E1754B1B68E0
:104D8C0003F48073002BF0D07B68DB68012B06D119
:104D9C006F4B1B6A6E4A43F0010313622DE07B6874
:104DAC00DB68002B0CD16A4B1B6A694A23F00103A8
:104DBC001362674B1B6A664A23F0040313621CE000
:104DCC007B68DB68052B0CD1614B1B6A604A43F096
:104DDC00040313625E4B1B6A5D4A43F001031362CA
:104DEC000BE05B4B1B6A5A4A23F001031362584BCE
:104DFC001B6A574A23F0040313627B68DB68002BA1
:104E0C0015D0FDF74FFC38610AE0FDF74BFC02466C
:104E1C003B69D31A41F28832934201D90323B1E0A2
:104E2C004B4B1B6A03F00203002BEED014E0FDF792
:104E3C0039FC38610AE0FDF735FC02463B69D31AB0
:104E4C0041F28832934201D903239BE0404B1B6A09
:104E5C0003F00203002BEED1FB7D012B05D13C4B63
:104E6C00DB693B4A23F08053D3617B68DB69002B01
:104E7C0000F08780364B5B6803F00C03082B61D085
:104E8C007B68DB69022B46D1334B00221A60FDF79D
:104E9C0009FC386108E0FDF705FC02463B69D31AB2
:104EAC00022B01D903236DE0294B1B6803F000731F
:104EBC00002BF0D17B681B6AB3F5803F08D1244BE3
:104ECC005B6823F400327B689B68214913434B6079
:104EDC001F4B5B6823F474127B68196A7B685B6AEE
:104EEC000B431B4913434B601B4B01221A60FDF70C
:104EFC00D9FB386108E0FDF7D5FB02463B69D31AB4
:104F0C00022B01D903233DE0114B1B6803F0007306
:104F1C00002BF0D035E0104B00221A60FDF7C2FBDD
:104F2C00386108E0FDF7BEFB02463B69D31A022B41
:104F3C0001D9032326E0064B1B6803F00073002BFA
:104F4C00F0D11EE07B68DB69012B07D1012319E04E
:104F5C000010024000700040600042420B4B5B6846
:104F6C00FB60FB6803F480327B681B6A9A4206D1B3
:104F7C00FB6803F470127B685B6A9A4201D00123D0
:104F8C0000E0002318461837BD4680BD00100240D3
:104F9C0080B584B000AF786039607B68002B01D19C
:104FAC000123D0E06A4B1B6803F007033A689A426E
:104FBC0010D9674B1B6823F0070265493B68134304
:104FCC000B60634B1B6803F007033A689A4201D0ED
:104FDC000123B8E07B681B6803F00203002B20D090
:104FEC007B681B6803F00403002B05D0594B5B68EE
:104FFC00584A43F4E06353607B681B6803F0080372
:10500C00002B05D0534B5B68524A43F460535360FA
:10501C00504B5B6823F0F0027B689B684D4913434F
:10502C004B607B681B6803F00103002B40D07B684E
:10503C005B68012B07D1474B1B6803F40033002B33
:10504C0015D101237FE07B685B68022B07D1414BB4
:10505C001B6803F00073002B09D1012373E03D4B57
:10506C001B6803F00203002B01D101236BE0394BC9
:10507C005B6823F003027B685B68364913434B6023
:10508C00FDF710FBF8600AE0FDF70CFB0246FB682D
:10509C00D31A41F28832934201D9032353E02D4BAA
:1050AC005B6803F00C027B685B689B009A42EBD157
:1050BC00274B1B6803F007033A689A4210D2244B23
:1050CC001B6823F0070222493B6813430B60204BFB
:1050DC001B6803F007033A689A4201D0012332E0BF
:1050EC007B681B6803F00403002B08D0194B5B682A
:1050FC0023F4E0627B68DB68164913434B607B68E2
:10510C001B6803F00803002B09D0124B5B6823F4D7
:10511C0060527B681B69DB000E4913434B6000F047
:10512C0021F802460B4B5B681B0903F00F030A497D
:10513C00CB5C22FA03F3094A1360094B1B6818462F
:10514C00FDF76EFA002318461037BD4680BD00BF30
:10515C000020024000100240A8730008000000204C
:10516C000400002080B487B000AF0023FB60002354
:10517C00BB6000237B6100237B6000233B611E4BE3
:10518C005B68FB60FB6803F00C03042B02D0082B5C
:10519C0003D027E0194B3B6127E0FB689B0C03F025
:1051AC000F03174AD35C7B60FB6803F48033002B3E
:1051BC0010D0114B5B685B0C03F00103114AD35CFC
:1051CC00BB607B680D4A03FB02F2BB68B2FBF3F3D6
:1051DC007B6104E07B680C4A02FB03F37B617B6917
:1051EC003B6102E0054B3B6100BF3B6918461C3735
:1051FC00BD4680BC704700BF0010024000127A0010
:10520C00C0730008D073000800093D0080B400AFE3
:10521C00024B1B681846BD4680BC7047000000203E
:10522C0080B500AFFFF7F2FF0246054B5B681B0A27
:10523C0003F007030349CB5C22FA03F3184680BD45
:10524C0000100240B873000880B500AFFFF7DEFF16
:10525C000246054B5B68DB0A03F007030349CB5C92
:10526C0022FA03F3184680BD00100240B873000800
:10527C0080B485B000AF78600A4B1B680A4AA2FB69
:10528C0003235B0A7A6802FB03F3FB6000BFFB6835
:10529C005A1EFA60002BF9D100BF00BF1437BD466F
:1052AC0080BC704700000020D34D621080B586B0E2
:1052BC0000AF786000233B610023FB607B681B68B8
:1052CC0003F00103002B7DD00023FB754F4BDB69F2
:1052DC0003F08053002B0DD14C4BDB694B4A43F050
:1052EC008053D361494BDB6903F08053BB60BB68CF
:1052FC000123FB75464B1B6803F48073002B18D1FC
:10530C00434B1B68424A43F480731360FDF7CAF9A0
:10531C00386108E0FDF7C6F902463B69D31A642BE5
:10532C0001D903236DE03A4B1B6803F48073002B07
:10533C00F0D0364B1B6A03F44073FB60FB68002B08
:10534C002ED07B685B6803F44073FA689A4227D0CE
:10535C002E4B1B6A23F44073FB602E4B01221A6008
:10536C002C4B00221A60294AFB681362FB6803F07D
:10537C000103002B14D0FDF795F938610AE0FDF715
:10538C0091F902463B69D31A41F28832934201D912
:10539C00032336E01D4B1B6A03F00203002BEED0F7
:1053AC001A4B1B6A23F440727B685B6817491343E2
:1053BC000B62FB7D012B05D1144BDB69134A23F0E7
:1053CC008053D3617B681B6803F00203002B08D069
:1053DC000E4B5B6823F440427B689B680B4913437C
:1053EC004B607B681B6803F01003002B08D0074B45
:1053FC005B6823F480027B68DB68044913434B60D1
:10540C00002318461837BD4680BD00BF001002406F
:10541C00007000404004424280B588B000AF786014
:10542C0000237B610023FB6100233B610023FB60B5
:10543C000023BB617B68102B0AD07B68102B00F219
:10544C008A807B68012B45D07B68022B75D082E06B
:10545C00464B5B68FB60454B1B6803F08073002B6D
:10546C007BD0FB689B0C03F00F03414AD35C3B6180
:10547C00FB6803F48033002B15D03C4B5B685B0C52
:10548C0003F001033B4AD35C7B61FB6803F480337C
:10549C00002B0DD0384A7B69B2FBF3F23B6902FB5F
:1054AC0003F3FB6104E03B69344A02FB03F3FB6149
:1054BC002E4B5B6803F48003B3F5800F02D1FB69BC
:1054CC00BB614AE0FB695B002D4AA2FB03235B082E
:1054DC00BB6142E0254B1B6AFB60FB6803F4407325
:1054EC00B3F5807F08D1FB6803F00203002B03D0D7
:1054FC004FF40043BB611FE0FB6803F44073B3F54A
:10550C00007F09D1194B5B6A03F00203002B03D017
:10551C0049F64043BB610FE0FB6803F44073B3F5FD
:10552C00407F1CD1114B1B6803F40033002B16D0A9
:10553C004FF22443BB6112E011E0FFF785FE0246F7
:10554C000A4B5B689B0B03F0030301335B00B2FB5C
:10555C00F3F3BB6104E000BF02E000BF00E000BF5A
:10556C00BB6918462037BD4680BD00BF0010024005
:10557C00D4730008E473000800127A0000093D009F
:10558C00ABAAAAAA80B584B000AF78600023FB60F8
:10559C007B68002B01D101237AE07B685B7CDBB25A
:1055AC00002B05D17B6800221A747868FCF71EFF6B
:1055BC007B6802225A74786800F078FB0346002B53
:1055CC0004D07B6804225A74012361E0786800F0EF
:1055DC0031FC0346002B04D07B6804225A7401234F
:1055EC0056E07B681B685A687B681B6822F00702D0
:1055FC005A607B689B68002B05D0274B1B6B264A97
:10560C0023F001031363244BDB6A23F460727B6881
:10561C009B6821491343CB627B685B68B3F1FF3F06
:10562C0003D07B685B68FB600EE00120FFF7F4FEA3
:10563C00F860FB68002B04D17B6804225A740123A8
:10564C0026E0FB68013BFB60FB681A0C7B681B685F
:10565C0002F00F029A607B681B68FA6892B2DA60FB
:10566C00786800F00FFC0346002B04D07B68042202
:10567C005A7401230CE07B680022DA737B680122E8
:10568C005A737B6801229A737B6801225A74002337
:10569C0018461037BD4680BD006C004090B587B0F1
:1056AC0000AFF860B9607A6000237B6100233B6136
:1056BC00FB68002B02D0BB68002B01D1012380E0DA
:1056CC00FB681B7C012B01D102237AE0FB680122D1
:1056DC001A74FB6802225A747B68002B13D1BB68C6
:1056EC001B781A464FF4616303FB02F2BB685B78CC
:1056FC0019460B461B015B1A9B001344BA6892783F
:10570C0013447B611EE0BB681B78184600F0FFFB5E
:10571C0003461A464FF4616303FB02F4BB685B78E3
:10572C00184600F0F4FB03461A4613461B019B1A5D
:10573C009B001C44BB689B78184600F0E8FB0346B2
:10574C0023447B617969F86800F00DFB0346002B5C
:10575C0007D0FB6804225A74FB6800221A740123D8
:10576C002FE0FB681B685A68FB681B6822F0050277
:10577C005A60F86800F01EFB38613B69B3F1FF3FDB
:10578C0018D03A697B699A4214D23B6903F5A83365
:10579C0003F5C0733B613969F86800F024FB0346DC
:1057AC00002B07D0FB6804225A74FB6800221A7481
:1057BC00012306E0FB6801225A74FB6800221A746C
:1057CC00002318461C37BD4690BD000080B588B03C
:1057DC0000AFF860B9607A600023BB610023FB6105
:1057EC0000237B6100233B61FB68002B02D0BB686C
:1057FC00002B01D10123B5E0FB681B685B6803F04B
:10580C000403002B01D00123ACE0F86800F07BFA14
:10581C00B861BB69554AA2FB0323DB0A3B61BA6939
:10582C00524BA3FB0213DB0A4FF4616101FB03F340
:10583C00D31A4F4AA2FB03235B09DAB2BB685A7036
:10584C00BB694A4AA2FB0312D20A4FF4616101FB05
:10585C0002F29A1A464BA3FB021359090B461B0181
:10586C005B1A9B00D11ACAB2BB689A703B69172BA2
:10587C0055D93B693F4AA2FB03231B097B6139695C
:10588C003C4BA3FB01231A0913465B001344DB00BA
:10589C00CA1AD2B2BB681A70F86800F08BFAF861B9
:1058AC00FB69B3F1FF3F08D0FA69BB699A4204D98E
:1058BC00FA69BB69D31AFB6102E04FF0FF33FB615D
:1058CC007B692D4A02FB03F3BA69D31ABB61B96930
:1058DC00F86800F048FA0346002B01D0012341E0A0
:1058EC00FB69B3F1FF3F0CD0FA69BB691344FB6150
:1058FC00F969F86800F077FA0346002B0AD0012307
:10590C0030E0F969F86800F06EFA0346002B01D01C
:10591C00012327E07969F86800F016FB03E03B6986
:10592C00DAB2BB681A707B68002B1AD0BB681B7884
:10593C00184600F0CFFA03461A46BB681A70BB68CB
:10594C005B78184600F0C6FA03461A46BB685A70D4
:10595C00BB689B78184600F0BDFA03461A46BB6834
:10596C009A70002318462037BD4680BDC5B3A2915E
:10597C0089888888ABAAAAAA8051010080B588B012
:10598C0000AFF860B9607A600023FB610023BB6153
:10599C0000237B61FB68002B02D0BB68002B01D17C
:1059AC00012397E0FB681B7C012B01D1022391E0C2
:1059BC00FB6801221A74FB6802225A747B68002B64
:1059CC000CD1BB68DA78FB68DA73BB685A78FB6871
:1059DC005A73BB689A78FB689A731AE0BB68DB78D9
:1059EC00184600F094FA03461A46FB68DA73BB6853
:1059FC005B78184600F08BFA03461A46FB685A731C
:105A0C00BB689B78184600F082FA03461A46FB687E
:105A1C009A73FB68DB7B1846FB68597BFB689B7BA6
:105A2C001A4600F06DFB03461A46FB681A73FB68B6
:105A3C001A7BBB681A70F86800F065F9F861FB69AD
:105A4C00264AA2FB0323DB0A7B617B69182B3AD91C
:105A5C007B69234AA2FB03231B09224A02FB03F3A3
:105A6C00FA69D31AFB61F969F86800F07CF903460E
:105A7C00002B07D0FB6804225A74FB6800221A74AE
:105A8C00012327E0F86800F095F9B861BB69B3F120
:105A9C00FF3F18D0BA69FB699A4214D2BB6903F56F
:105AAC00A83303F5C073BB61B969F86800F09BF9C2
:105ABC000346002B07D0FB6804225A74FB680022B3
:105ACC001A74012306E0FB6801225A74FB68002259
